{"abi":[{"type":"constructor","inputs":[{"name":"_fundingToken","type":"address","internalType":"address"},{"name":"_manager","type":"address","internalType":"address"}],"stateMutability":"nonpayable"},{"type":"function","name":"fundingToken","inputs":[],"outputs":[{"name":"","type":"address","internalType":"contract IERC20"}],"stateMutability":"view"},{"type":"function","name":"getToken","inputs":[],"outputs":[{"name":"","type":"address","internalType":"address"}],"stateMutability":"view"},{"type":"function","name":"owner","inputs":[],"outputs":[{"name":"","type":"address","internalType":"address"}],"stateMutability":"view"},{"type":"function","name":"release","inputs":[{"name":"recipient","type":"address","internalType":"address"},{"name":"amount","type":"uint256","internalType":"uint256"}],"outputs":[],"stateMutability":"nonpayable"},{"type":"function","name":"renounceOwnership","inputs":[],"outputs":[],"stateMutability":"nonpayable"},{"type":"function","name":"transferOwnership","inputs":[{"name":"newOwner","type":"address","internalType":"address"}],"outputs":[],"stateMutability":"nonpayable"},{"type":"event","name":"FundsDeposited","inputs":[{"name":"depositor","type":"address","indexed":true,"internalType":"address"},{"name":"amount","type":"uint256","indexed":false,"internalType":"uint256"}],"anonymous":false},{"type":"event","name":"FundsReleased","inputs":[{"name":"recipient","type":"address","indexed":true,"internalType":"address"},{"name":"amount","type":"uint256","indexed":false,"internalType":"uint256"}],"anonymous":false},{"type":"event","name":"OwnershipTransferred","inputs":[{"name":"previousOwner","type":"address","indexed":true,"internalType":"address"},{"name":"newOwner","type":"address","indexed":true,"internalType":"address"}],"anonymous":false},{"type":"error","name":"InsufficientBalance","inputs":[]},{"type":"error","name":"OwnableInvalidOwner","inputs":[{"name":"owner","type":"address","internalType":"address"}]},{"type":"error","name":"OwnableUnauthorizedAccount","inputs":[{"name":"account","type":"address","internalType":"address"}]},{"type":"error","name":"SafeERC20FailedOperation","inputs":[{"name":"token","type":"address","internalType":"address"}]},{"type":"error","name":"TransferFailed","inputs":[]},{"type":"error","name":"Unauthorized","inputs":[]}],"bytecode":{"object":"0x60a060405234801561000f575f5ffd5b5060405161061d38038061061d83398101604081905261002e91610139565b806001600160a01b03811661005d57604051631e4fbdf760e01b81525f60048201526024015b60405180910390fd5b610066816100cf565b506001600160a01b0382166100bd5760405162461bcd60e51b815260206004820152601560248201527f496e76616c696420746f6b656e206164647265737300000000000000000000006044820152606401610054565b506001600160a01b031660805261016a565b5f80546001600160a01b038381166001600160a01b0319831681178455604051919092169283917f8be0079c531659141344cd1fd0a4f28419497f9722a3daafe3b4186f6b6457e09190a35050565b80516001600160a01b0381168114610134575f5ffd5b919050565b5f5f6040838503121561014a575f5ffd5b6101538361011e565b91506101616020840161011e565b90509250929050565b6080516104886101955f395f8181607b0152818160c40152818161012e01526101cf01526104885ff3fe608060405234801561000f575f5ffd5b5060043610610060575f3560e01c80630357371d1461006457806321df0da714610079578063715018a6146100b757806378065f27146100bf5780638da5cb5b146100e6578063f2fde38b146100f6575b5f5ffd5b6100776100723660046103f3565b610109565b005b7f00000000000000000000000000000000000000000000000000000000000000005b6040516001600160a01b03909116815260200160405180910390f35b61007761023f565b61009b7f000000000000000000000000000000000000000000000000000000000000000081565b5f546001600160a01b031661009b565b61007761010436600461041b565b610252565b610111610294565b801561023b576040516370a0823160e01b81523060048201525f907f00000000000000000000000000000000000000000000000000000000000000006001600160a01b0316906370a0823190602401602060405180830381865afa15801561017b573d5f5f3e3d5ffd5b505050506040513d601f19601f8201168201806040525081019061019f919061043b565b9050818110156101c257604051631e9acf1760e31b815260040160405180910390fd5b6101f66001600160a01b037f00000000000000000000000000000000000000000000000000000000000000001684846102c0565b826001600160a01b03167f221c08a06b07a64803b3787861a3f276212fcccb51c2e6234077a9b8cb13047a8360405161023191815260200190565b60405180910390a2505b5050565b610247610294565b6102505f610317565b565b61025a610294565b6001600160a01b03811661028857604051631e4fbdf760e01b81525f60048201526024015b60405180910390fd5b61029181610317565b50565b5f546001600160a01b031633146102505760405163118cdaa760e01b815233600482015260240161027f565b604080516001600160a01b038416602482015260448082018490528251808303909101815260649091019091526020810180516001600160e01b031663a9059cbb60e01b179052610312908490610366565b505050565b5f80546001600160a01b038381166001600160a01b0319831681178455604051919092169283917f8be0079c531659141344cd1fd0a4f28419497f9722a3daafe3b4186f6b6457e09190a35050565b5f5f60205f8451602086015f885af180610385576040513d5f823e3d81fd5b50505f513d9150811561039c5780600114156103a9565b6001600160a01b0384163b155b156103d257604051635274afe760e01b81526001600160a01b038516600482015260240161027f565b50505050565b80356001600160a01b03811681146103ee575f5ffd5b919050565b5f5f60408385031215610404575f5ffd5b61040d836103d8565b946020939093013593505050565b5f6020828403121561042b575f5ffd5b610434826103d8565b9392505050565b5f6020828403121561044b575f5ffd5b505191905056fea2646970667358221220b2672cdb60d75315fbf815ad3b438b582c1b59e0033154c6d926c95369f09eee64736f6c634300081c0033","linkReferences":{}},"methodIdentifiers":{"fundingToken()":"78065f27","getToken()":"21df0da7","owner()":"8da5cb5b","release(address,uint256)":"0357371d","renounceOwnership()":"715018a6","transferOwnership(address)":"f2fde38b"},"id":35}