{
  "abi": [
    {
      "type": "constructor",
      "inputs": [
        {
          "name": "_vault",
          "type": "address",
          "internalType": "address"
        },
        {
          "name": "_government",
          "type": "address",
          "internalType": "address"
        }
      ],
      "stateMutability": "nonpayable"
    },
    {
      "type": "function",
      "name": "AGENCY_ROLE",
      "inputs": [],
      "outputs": [
        {
          "name": "",
          "type": "bytes32",
          "internalType": "bytes32"
        }
      ],
      "stateMutability": "view"
    },
    {
      "type": "function",
      "name": "DEFAULT_ADMIN_ROLE",
      "inputs": [],
      "outputs": [
        {
          "name": "",
          "type": "bytes32",
          "internalType": "bytes32"
        }
      ],
      "stateMutability": "view"
    },
    {
      "type": "function",
      "name": "agencies",
      "inputs": [
        {
          "name": "",
          "type": "address",
          "internalType": "address"
        }
      ],
      "outputs": [
        {
          "name": "wallet",
          "type": "address",
          "internalType": "address"
        },
        {
          "name": "metadataURI",
          "type": "string",
          "internalType": "string"
        },
        {
          "name": "isRegistered",
          "type": "bool",
          "internalType": "bool"
        }
      ],
      "stateMutability": "view"
    },
    {
      "type": "function",
      "name": "approveProposal",
      "inputs": [
        {
          "name": "_proposalId",
          "type": "uint256",
          "internalType": "uint256"
        }
      ],
      "outputs": [],
      "stateMutability": "nonpayable"
    },
    {
      "type": "function",
      "name": "completeProject",
      "inputs": [
        {
          "name": "_projectId",
          "type": "uint256",
          "internalType": "uint256"
        }
      ],
      "outputs": [],
      "stateMutability": "nonpayable"
    },
    {
      "type": "function",
      "name": "createProject",
      "inputs": [
        {
          "name": "_name",
          "type": "string",
          "internalType": "string"
        },
        {
          "name": "_description",
          "type": "string",
          "internalType": "string"
        },
        {
          "name": "_budget",
          "type": "uint256",
          "internalType": "uint256"
        }
      ],
      "outputs": [
        {
          "name": "",
          "type": "uint256",
          "internalType": "uint256"
        }
      ],
      "stateMutability": "nonpayable"
    },
    {
      "type": "function",
      "name": "getRoleAdmin",
      "inputs": [
        {
          "name": "role",
          "type": "bytes32",
          "internalType": "bytes32"
        }
      ],
      "outputs": [
        {
          "name": "",
          "type": "bytes32",
          "internalType": "bytes32"
        }
      ],
      "stateMutability": "view"
    },
    {
      "type": "function",
      "name": "grantRole",
      "inputs": [
        {
          "name": "role",
          "type": "bytes32",
          "internalType": "bytes32"
        },
        {
          "name": "account",
          "type": "address",
          "internalType": "address"
        }
      ],
      "outputs": [],
      "stateMutability": "nonpayable"
    },
    {
      "type": "function",
      "name": "hasRole",
      "inputs": [
        {
          "name": "role",
          "type": "bytes32",
          "internalType": "bytes32"
        },
        {
          "name": "account",
          "type": "address",
          "internalType": "address"
        }
      ],
      "outputs": [
        {
          "name": "",
          "type": "bool",
          "internalType": "bool"
        }
      ],
      "stateMutability": "view"
    },
    {
      "type": "function",
      "name": "nextProjectId",
      "inputs": [],
      "outputs": [
        {
          "name": "",
          "type": "uint256",
          "internalType": "uint256"
        }
      ],
      "stateMutability": "view"
    },
    {
      "type": "function",
      "name": "nextProposalId",
      "inputs": [],
      "outputs": [
        {
          "name": "",
          "type": "uint256",
          "internalType": "uint256"
        }
      ],
      "stateMutability": "view"
    },
    {
      "type": "function",
      "name": "projects",
      "inputs": [
        {
          "name": "",
          "type": "uint256",
          "internalType": "uint256"
        }
      ],
      "outputs": [
        {
          "name": "id",
          "type": "uint256",
          "internalType": "uint256"
        },
        {
          "name": "name",
          "type": "string",
          "internalType": "string"
        },
        {
          "name": "description",
          "type": "string",
          "internalType": "string"
        },
        {
          "name": "totalEstimatedBudget",
          "type": "uint256",
          "internalType": "uint256"
        },
        {
          "name": "status",
          "type": "uint8",
          "internalType": "enum AttestManager.ProjectStatus"
        }
      ],
      "stateMutability": "view"
    },
    {
      "type": "function",
      "name": "proposalPhases",
      "inputs": [
        {
          "name": "",
          "type": "uint256",
          "internalType": "uint256"
        },
        {
          "name": "",
          "type": "uint256",
          "internalType": "uint256"
        }
      ],
      "outputs": [
        {
          "name": "id",
          "type": "uint256",
          "internalType": "uint256"
        },
        {
          "name": "description",
          "type": "string",
          "internalType": "string"
        },
        {
          "name": "allocatedAmount",
          "type": "uint256",
          "internalType": "uint256"
        },
        {
          "name": "status",
          "type": "uint8",
          "internalType": "enum AttestManager.PhaseStatus"
        }
      ],
      "stateMutability": "view"
    },
    {
      "type": "function",
      "name": "proposals",
      "inputs": [
        {
          "name": "",
          "type": "uint256",
          "internalType": "uint256"
        }
      ],
      "outputs": [
        {
          "name": "id",
          "type": "uint256",
          "internalType": "uint256"
        },
        {
          "name": "projectId",
          "type": "uint256",
          "internalType": "uint256"
        },
        {
          "name": "agency",
          "type": "address",
          "internalType": "address"
        },
        {
          "name": "metadataURI",
          "type": "string",
          "internalType": "string"
        },
        {
          "name": "totalFunds",
          "type": "uint256",
          "internalType": "uint256"
        },
        {
          "name": "status",
          "type": "uint8",
          "internalType": "enum AttestManager.ProposalStatus"
        },
        {
          "name": "currentPhaseIndex",
          "type": "uint256",
          "internalType": "uint256"
        }
      ],
      "stateMutability": "view"
    },
    {
      "type": "function",
      "name": "registerAgency",
      "inputs": [
        {
          "name": "_agencyAddress",
          "type": "address",
          "internalType": "address"
        },
        {
          "name": "_metadata",
          "type": "string",
          "internalType": "string"
        }
      ],
      "outputs": [],
      "stateMutability": "nonpayable"
    },
    {
      "type": "function",
      "name": "renounceRole",
      "inputs": [
        {
          "name": "role",
          "type": "bytes32",
          "internalType": "bytes32"
        },
        {
          "name": "callerConfirmation",
          "type": "address",
          "internalType": "address"
        }
      ],
      "outputs": [],
      "stateMutability": "nonpayable"
    },
    {
      "type": "function",
      "name": "revokeRole",
      "inputs": [
        {
          "name": "role",
          "type": "bytes32",
          "internalType": "bytes32"
        },
        {
          "name": "account",
          "type": "address",
          "internalType": "address"
        }
      ],
      "outputs": [],
      "stateMutability": "nonpayable"
    },
    {
      "type": "function",
      "name": "submitProof",
      "inputs": [
        {
          "name": "_proposalId",
          "type": "uint256",
          "internalType": "uint256"
        },
        {
          "name": "_proofLink",
          "type": "string",
          "internalType": "string"
        }
      ],
      "outputs": [],
      "stateMutability": "nonpayable"
    },
    {
      "type": "function",
      "name": "submitProposal",
      "inputs": [
        {
          "name": "_projectId",
          "type": "uint256",
          "internalType": "uint256"
        },
        {
          "name": "_metadataURI",
          "type": "string",
          "internalType": "string"
        },
        {
          "name": "_phases",
          "type": "tuple[]",
          "internalType": "struct AttestManager.PhaseInput[]",
          "components": [
            {
              "name": "description",
              "type": "string",
              "internalType": "string"
            },
            {
              "name": "allocatedAmount",
              "type": "uint256",
              "internalType": "uint256"
            }
          ]
        }
      ],
      "outputs": [
        {
          "name": "",
          "type": "uint256",
          "internalType": "uint256"
        }
      ],
      "stateMutability": "nonpayable"
    },
    {
      "type": "function",
      "name": "supportsInterface",
      "inputs": [
        {
          "name": "interfaceId",
          "type": "bytes4",
          "internalType": "bytes4"
        }
      ],
      "outputs": [
        {
          "name": "",
          "type": "bool",
          "internalType": "bool"
        }
      ],
      "stateMutability": "view"
    },
    {
      "type": "function",
      "name": "vault",
      "inputs": [],
      "outputs": [
        {
          "name": "",
          "type": "address",
          "internalType": "contract IAttestVault"
        }
      ],
      "stateMutability": "view"
    },
    {
      "type": "function",
      "name": "verifyAndReleasePhase",
      "inputs": [
        {
          "name": "_proposalId",
          "type": "uint256",
          "internalType": "uint256"
        }
      ],
      "outputs": [],
      "stateMutability": "nonpayable"
    },
    {
      "type": "event",
      "name": "AgencyRegistered",
      "inputs": [
        {
          "name": "agencyAddress",
          "type": "address",
          "indexed": true,
          "internalType": "address"
        },
        {
          "name": "metadata",
          "type": "string",
          "indexed": false,
          "internalType": "string"
        }
      ],
      "anonymous": false
    },
    {
      "type": "event",
      "name": "PhaseApproved",
      "inputs": [
        {
          "name": "proposalId",
          "type": "uint256",
          "indexed": true,
          "internalType": "uint256"
        },
        {
          "name": "phaseIndex",
          "type": "uint256",
          "indexed": true,
          "internalType": "uint256"
        },
        {
          "name": "amountReleased",
          "type": "uint256",
          "indexed": false,
          "internalType": "uint256"
        }
      ],
      "anonymous": false
    },
    {
      "type": "event",
      "name": "PhaseProofSubmitted",
      "inputs": [
        {
          "name": "proposalId",
          "type": "uint256",
          "indexed": true,
          "internalType": "uint256"
        },
        {
          "name": "phaseIndex",
          "type": "uint256",
          "indexed": true,
          "internalType": "uint256"
        },
        {
          "name": "proofLink",
          "type": "string",
          "indexed": false,
          "internalType": "string"
        }
      ],
      "anonymous": false
    },
    {
      "type": "event",
      "name": "ProjectCompleted",
      "inputs": [
        {
          "name": "projectId",
          "type": "uint256",
          "indexed": true,
          "internalType": "uint256"
        }
      ],
      "anonymous": false
    },
    {
      "type": "event",
      "name": "ProjectCreated",
      "inputs": [
        {
          "name": "projectId",
          "type": "uint256",
          "indexed": true,
          "internalType": "uint256"
        },
        {
          "name": "name",
          "type": "string",
          "indexed": false,
          "internalType": "string"
        },
        {
          "name": "budget",
          "type": "uint256",
          "indexed": false,
          "internalType": "uint256"
        }
      ],
      "anonymous": false
    },
    {
      "type": "event",
      "name": "ProposalApproved",
      "inputs": [
        {
          "name": "proposalId",
          "type": "uint256",
          "indexed": true,
          "internalType": "uint256"
        }
      ],
      "anonymous": false
    },
    {
      "type": "event",
      "name": "ProposalCompleted",
      "inputs": [
        {
          "name": "proposalId",
          "type": "uint256",
          "indexed": true,
          "internalType": "uint256"
        }
      ],
      "anonymous": false
    },
    {
      "type": "event",
      "name": "ProposalSubmitted",
      "inputs": [
        {
          "name": "proposalId",
          "type": "uint256",
          "indexed": true,
          "internalType": "uint256"
        },
        {
          "name": "projectId",
          "type": "uint256",
          "indexed": true,
          "internalType": "uint256"
        },
        {
          "name": "agency",
          "type": "address",
          "indexed": true,
          "internalType": "address"
        }
      ],
      "anonymous": false
    },
    {
      "type": "event",
      "name": "RoleAdminChanged",
      "inputs": [
        {
          "name": "role",
          "type": "bytes32",
          "indexed": true,
          "internalType": "bytes32"
        },
        {
          "name": "previousAdminRole",
          "type": "bytes32",
          "indexed": true,
          "internalType": "bytes32"
        },
        {
          "name": "newAdminRole",
          "type": "bytes32",
          "indexed": true,
          "internalType": "bytes32"
        }
      ],
      "anonymous": false
    },
    {
      "type": "event",
      "name": "RoleGranted",
      "inputs": [
        {
          "name": "role",
          "type": "bytes32",
          "indexed": true,
          "internalType": "bytes32"
        },
        {
          "name": "account",
          "type": "address",
          "indexed": true,
          "internalType": "address"
        },
        {
          "name": "sender",
          "type": "address",
          "indexed": true,
          "internalType": "address"
        }
      ],
      "anonymous": false
    },
    {
      "type": "event",
      "name": "RoleRevoked",
      "inputs": [
        {
          "name": "role",
          "type": "bytes32",
          "indexed": true,
          "internalType": "bytes32"
        },
        {
          "name": "account",
          "type": "address",
          "indexed": true,
          "internalType": "address"
        },
        {
          "name": "sender",
          "type": "address",
          "indexed": true,
          "internalType": "address"
        }
      ],
      "anonymous": false
    },
    {
      "type": "error",
      "name": "AccessControlBadConfirmation",
      "inputs": []
    },
    {
      "type": "error",
      "name": "AccessControlUnauthorizedAccount",
      "inputs": [
        {
          "name": "account",
          "type": "address",
          "internalType": "address"
        },
        {
          "name": "neededRole",
          "type": "bytes32",
          "internalType": "bytes32"
        }
      ]
    },
    {
      "type": "error",
      "name": "BudgetMismatch",
      "inputs": []
    },
    {
      "type": "error",
      "name": "InvalidInput",
      "inputs": []
    },
    {
      "type": "error",
      "name": "InvalidState",
      "inputs": []
    },
    {
      "type": "error",
      "name": "NotFound",
      "inputs": []
    },
    {
      "type": "error",
      "name": "NotRegistered",
      "inputs": []
    },
    {
      "type": "error",
      "name": "ReentrancyGuardReentrantCall",
      "inputs": []
    },
    {
      "type": "error",
      "name": "Unauthorized",
      "inputs": []
    }
  ],
  "bytecode": {
    "object": "0x60a060405260016002556001600355348015610019575f5ffd5b50604051611e43380380611e438339810160408190526100389161011f565b600180556001600160a01b0382166080526100535f8261005b565b505050610150565b5f828152602081815260408083206001600160a01b038516845290915281205460ff166100fb575f838152602081815260408083206001600160a01b03861684529091529020805460ff191660011790556100b33390565b6001600160a01b0316826001600160a01b0316847f2f8788117e7eff1d82e926ec794901d17c78024a50270940304540a733656f0d60405160405180910390a45060016100fe565b505f5b92915050565b80516001600160a01b038116811461011a575f5ffd5b919050565b5f5f60408385031215610130575f5ffd5b61013983610104565b915061014760208401610104565b90509250929050565b608051611cd461016f5f395f818161033101526107b50152611cd45ff3fe608060405234801561000f575f5ffd5b506004361061013d575f3560e01c806336568abe116100b457806398951b561161007957806398951b56146102d3578063a217fddf146102e6578063d547741f146102ed578063dbcf8e2c14610300578063e935b7b114610323578063fbfa77cf1461032c575f5ffd5b806336568abe146102735780634d0adefd1461028657806359738b9e1461029a57806391d14854146102ad578063920228b4146102c0575f5ffd5b80632245f152116101055780632245f152146101ee57806323c5544814610201578063248a9ca3146102225780632ab09d14146102445780632af005101461024d5780632f2ff15d14610260575f5ffd5b8063013cf08b1461014157806301ffc9a7146101705780630eaedc6014610193578063107046bd146101b557806313778ae4146101d9575b5f5ffd5b61015461014f366004611554565b61036b565b60405161016797969594939291906115ad565b60405180910390f35b61018361017e366004611606565b61043d565b6040519015158152602001610167565b6101a66101a136600461164f565b610473565b60405161016793929190611668565b6101c86101c3366004611554565b610528565b6040516101679594939291906116ad565b6101ec6101e7366004611554565b610666565b005b6101ec6101fc366004611554565b6108ba565b61021461020f36600461173e565b610954565b604051908152602001610167565b610214610230366004611554565b5f9081526020819052604090206001015490565b61021460035481565b6101ec61025b3660046117b1565b610ad5565b6101ec61026e3660046117f9565b610c82565b6101ec6102813660046117f9565b610cac565b6102145f516020611c7f5f395f51905f5281565b6101ec6102a8366004611823565b610ce4565b6101836102bb3660046117f9565b610e20565b6102146102ce366004611859565b610e48565b6101ec6102e1366004611554565b611173565b6102145f81565b6101ec6102fb3660046117f9565b61123d565b61031361030e366004611900565b611261565b6040516101679493929190611920565b61021460025481565b6103537f000000000000000000000000000000000000000000000000000000000000000081565b6040516001600160a01b039091168152602001610167565b60066020525f90815260409020805460018201546002830154600384018054939492936001600160a01b0390921692916103a490611958565b80601f01602080910402602001604051908101604052809291908181526020018280546103d090611958565b801561041b5780601f106103f25761010080835404028352916020019161041b565b820191905f5260205f20905b8154815290600101906020018083116103fe57829003601f168201915b50505050600483015460058401546006909401549293909260ff909116915087565b5f6001600160e01b03198216637965db0b60e01b148061046d57506301ffc9a760e01b6001600160e01b03198316145b92915050565b60056020525f9081526040902080546001820180546001600160a01b03909216929161049e90611958565b80601f01602080910402602001604051908101604052809291908181526020018280546104ca90611958565b80156105155780601f106104ec57610100808354040283529160200191610515565b820191905f5260205f20905b8154815290600101906020018083116104f857829003601f168201915b5050506002909301549192505060ff1683565b60046020525f90815260409020805460018201805491929161054990611958565b80601f016020809104026020016040519081016040528092919081815260200182805461057590611958565b80156105c05780601f10610597576101008083540402835291602001916105c0565b820191905f5260205f20905b8154815290600101906020018083116105a357829003601f168201915b5050505050908060020180546105d590611958565b80601f016020809104026020016040519081016040528092919081815260200182805461060190611958565b801561064c5780601f106106235761010080835404028352916020019161064c565b820191905f5260205f20905b81548152906001019060200180831161062f57829003601f168201915b50505050600383015460049093015491929160ff16905085565b6106705f33610e20565b61068c576040516282b42960e81b815260040160405180910390fd5b610694611331565b5f8181526006602052604090206003600582015460ff1660048111156106bc576106bc611599565b146106da5760405163baf3f0f760e01b815260040160405180910390fd5b60068101545f8381526007602052604090208054821061070d5760405163baf3f0f760e01b815260040160405180910390fd5b5f81838154811061072057610720611990565b5f918252602090912060059091020190506001600482015460ff16600281111561074c5761074c611599565b1461076a5760405163baf3f0f760e01b815260040160405180910390fd5b60048101805460ff191660029081179091558101541561080f5760028481015490820154604051630357371d60e01b81526001600160a01b03928316600482015260248101919091527f000000000000000000000000000000000000000000000000000000000000000090911690630357371d906044015f604051808303815f87803b1580156107f8575f5ffd5b505af115801561080a573d5f5f3e3d5ffd5b505050505b82857fd8fe27b98627b38e13a5c95c5c3729e1aa3e28cc5f548fc7a37970a07bffe9c4836002015460405161084691815260200190565b60405180910390a3600684018054905f61085f836119b8565b909155505081546006850154106108aa5760058401805460ff1916600417905560405185907f71611adb0c8d2eea43359b2e41e5fdf96309ce734ed1eb78ceb763198c1b8967905f90a25b505050506108b760018055565b50565b6108c45f33610e20565b6108e0576040516282b42960e81b815260040160405180910390fd5b5f81815260046020526040812054900361090d5760405163c5723b5160e01b815260040160405180910390fd5b5f818152600460208190526040808320909101805460ff191660011790555182917f60d8df137e489b6216738e436244ca4700bd6d0c8371d3c8d9c80b54538111b991a250565b5f61095f8133610e20565b61097b576040516282b42960e81b815260040160405180910390fd5b600280545f918261098b836119b8565b9190505590506040518060a0016040528082815260200188888080601f0160208091040260200160405190810160405280939291908181526020018383808284375f92019190915250505090825250604080516020601f8901819004810282018101909252878152918101919088908890819084018382808284375f920182905250938552505050602080830187905260409283018290528482526004815291902082518155908201516001820190610a449082611a2f565b5060408201516002820190610a599082611a2f565b5060608201516003820155608082015160048201805460ff19166001836002811115610a8757610a87611599565b0217905550905050807f6245d01eb0db8df9242165c3ee1e2324367f93303d7b8f6a86e38a8767e643ae888886604051610ac393929190611b12565b60405180910390a29695505050505050565b610aec5f516020611c7f5f395f51905f5233610e20565b610b08576040516282b42960e81b815260040160405180910390fd5b5f83815260066020526040902060028101546001600160a01b03163314610b41576040516282b42960e81b815260040160405180910390fd5b6003600582015460ff166004811115610b5c57610b5c611599565b14610b7a5760405163baf3f0f760e01b815260040160405180910390fd5b60068101545f85815260076020526040902080548210610bad5760405163baf3f0f760e01b815260040160405180910390fd5b5f818381548110610bc057610bc0611990565b5f918252602090912060059091020190506002600482015460ff166002811115610bec57610bec611599565b03610c0a5760405163baf3f0f760e01b815260040160405180910390fd5b6003810180546001810182555f918252602090912001610c2b868883611b35565b5060048101805460ff19166001179055604051839088907f84fcc2b1cae57ee4a1d97ff6d33b106454f9cb819092b334df127e5c708910ff90610c71908a908a90611bef565b60405180910390a350505050505050565b5f82815260208190526040902060010154610c9c8161135b565b610ca68383611365565b50505050565b6001600160a01b0381163314610cd55760405163334bd91960e11b815260040160405180910390fd5b610cdf82826113f4565b505050565b610cee5f33610e20565b610d0a576040516282b42960e81b815260040160405180910390fd5b6040518060600160405280846001600160a01b0316815260200183838080601f0160208091040260200160405190810160405280939291908181526020018383808284375f9201829052509385525050600160209384018190526001600160a01b038881168452600585526040909320855181546001600160a01b0319169416939093178355928401519192830191610da4915082611a2f565b50604091909101516002909101805460ff1916911515919091179055610dd75f516020611c7f5f395f51905f5284611365565b50826001600160a01b03167fe35c6434731e0bf1c91789b5313da0c9a0d06b094c0a0b67d9812c8aca40d6f18383604051610e13929190611bef565b60405180910390a2505050565b5f918252602082815260408084206001600160a01b0393909316845291905290205460ff1690565b5f610e605f516020611c7f5f395f51905f5233610e20565b610e7c576040516282b42960e81b815260040160405180910390fd5b5f868152600460205260408120549003610ea95760405163c5723b5160e01b815260040160405180910390fd5b5f8681526004602081905260408220015460ff166002811115610ece57610ece611599565b14610eec5760405163baf3f0f760e01b815260040160405180910390fd5b335f9081526005602052604090206002015460ff16610f1e5760405163aba4733960e01b815260040160405180910390fd5b5f829003610f3f5760405163b4fa3fb360e01b815260040160405180910390fd5b600380545f9182610f4f836119b8565b909155505f818152600660205260409020818155600181018990556002810180546001600160a01b0319163317905590915060038101610f90878983611b35565b5060058101805460ff191690555f805b8581101561113057868682818110610fba57610fba611990565b9050602002810190610fcc9190611c0a565b610fda906020013583611c28565b9150606060075f8681526020019081526020015f206040518060a001604052808481526020018a8a8681811061101257611012611990565b90506020028101906110249190611c0a565b61102e9080611c3b565b8080601f0160208091040260200160405190810160405280939291908181526020018383808284375f920191909152505050908252506020018a8a8681811061107957611079611990565b905060200281019061108b9190611c0a565b602090810135825281018490526040015f90528154600181810184555f93845260209384902083516005909302019182559282015191929091908201906110d29082611a2f565b5060408201516002820155606082015180516110f891600384019160209091019061149e565b50608082015160048201805460ff1916600183600281111561111c5761111c611599565b02179055505060019092019150610fa09050565b506004820181905560405133908a9085907f966cf093e76ae922a8f15d44dcf28a095f8f2e52ceaeb4c08557a0e9b7d518fa905f90a45090979650505050505050565b61117d5f33610e20565b611199576040516282b42960e81b815260040160405180910390fd5b5f81815260066020526040812080549091036111c85760405163c5723b5160e01b815260040160405180910390fd5b5f600582015460ff1660048111156111e2576111e2611599565b146112005760405163baf3f0f760e01b815260040160405180910390fd5b60058101805460ff1916600317905560405182907f28ec9e38ba73636ceb2f6c1574136f83bd46284a3c74734b711bf45e12f8d929905f90a25050565b5f828152602081905260409020600101546112578161135b565b610ca683836113f4565b6007602052815f5260405f20818154811061127a575f80fd5b905f5260205f2090600502015f9150915050805f0154908060010180546112a090611958565b80601f01602080910402602001604051908101604052809291908181526020018280546112cc90611958565b80156113175780601f106112ee57610100808354040283529160200191611317565b820191905f5260205f20905b8154815290600101906020018083116112fa57829003601f168201915b50505050600283015460049093015491929160ff16905084565b60026001540361135457604051633ee5aeb560e01b815260040160405180910390fd5b6002600155565b6108b7813361145d565b5f6113708383610e20565b6113ed575f838152602081815260408083206001600160a01b03861684529091529020805460ff191660011790556113a53390565b6001600160a01b0316826001600160a01b0316847f2f8788117e7eff1d82e926ec794901d17c78024a50270940304540a733656f0d60405160405180910390a450600161046d565b505f61046d565b5f6113ff8383610e20565b156113ed575f838152602081815260408083206001600160a01b0386168085529252808320805460ff1916905551339286917ff6391f5c32d9c69d2a47ea670b442974b53935d1edc7fd64eb21e047a839171b9190a450600161046d565b6114678282610e20565b61149a5760405163e2517d3f60e01b81526001600160a01b03821660048201526024810183905260440160405180910390fd5b5050565b828054828255905f5260205f209081019282156114e2579160200282015b828111156114e257825182906114d29082611a2f565b50916020019190600101906114bc565b506114ee9291506114f2565b5090565b808211156114ee575f611505828261150e565b506001016114f2565b50805461151a90611958565b5f825580601f10611529575050565b601f0160209004905f5260205f20908101906108b791905b808211156114ee575f8155600101611541565b5f60208284031215611564575f5ffd5b5035919050565b5f81518084528060208401602086015e5f602082860101526020601f19601f83011685010191505092915050565b634e487b7160e01b5f52602160045260245ffd5b87815286602082015260018060a01b038616604082015260e060608201525f6115d960e083018761156b565b9050846080830152600584106115f1576115f1611599565b60a082019390935260c0015295945050505050565b5f60208284031215611616575f5ffd5b81356001600160e01b03198116811461162d575f5ffd5b9392505050565b80356001600160a01b038116811461164a575f5ffd5b919050565b5f6020828403121561165f575f5ffd5b61162d82611634565b6001600160a01b03841681526060602082018190525f9061168b9083018561156b565b90508215156040830152949350505050565b600381106108b7576108b7611599565b85815260a060208201525f6116c560a083018761156b565b82810360408401526116d7818761156b565b9150508360608301526116e98361169d565b8260808301529695505050505050565b5f5f83601f840112611709575f5ffd5b50813567ffffffffffffffff811115611720575f5ffd5b602083019150836020828501011115611737575f5ffd5b9250929050565b5f5f5f5f5f60608688031215611752575f5ffd5b853567ffffffffffffffff811115611768575f5ffd5b611774888289016116f9565b909650945050602086013567ffffffffffffffff811115611793575f5ffd5b61179f888289016116f9565b96999598509660400135949350505050565b5f5f5f604084860312156117c3575f5ffd5b83359250602084013567ffffffffffffffff8111156117e0575f5ffd5b6117ec868287016116f9565b9497909650939450505050565b5f5f6040838503121561180a575f5ffd5b8235915061181a60208401611634565b90509250929050565b5f5f5f60408486031215611835575f5ffd5b61183e84611634565b9250602084013567ffffffffffffffff8111156117e0575f5ffd5b5f5f5f5f5f6060868803121561186d575f5ffd5b85359450602086013567ffffffffffffffff81111561188a575f5ffd5b611896888289016116f9565b909550935050604086013567ffffffffffffffff8111156118b5575f5ffd5b8601601f810188136118c5575f5ffd5b803567ffffffffffffffff8111156118db575f5ffd5b8860208260051b84010111156118ef575f5ffd5b959894975092955050506020019190565b5f5f60408385031215611911575f5ffd5b50508035926020909101359150565b848152608060208201525f611938608083018661156b565b90508360408301526119498361169d565b82606083015295945050505050565b600181811c9082168061196c57607f821691505b60208210810361198a57634e487b7160e01b5f52602260045260245ffd5b50919050565b634e487b7160e01b5f52603260045260245ffd5b634e487b7160e01b5f52601160045260245ffd5b5f600182016119c9576119c96119a4565b5060010190565b634e487b7160e01b5f52604160045260245ffd5b601f821115610cdf57805f5260205f20601f840160051c81016020851015611a095750805b601f840160051c820191505b81811015611a28575f8155600101611a15565b5050505050565b815167ffffffffffffffff811115611a4957611a496119d0565b611a5d81611a578454611958565b846119e4565b6020601f821160018114611a8f575f8315611a785750848201515b5f19600385901b1c1916600184901b178455611a28565b5f84815260208120601f198516915b82811015611abe5787850151825560209485019460019092019101611a9e565b5084821015611adb57868401515f19600387901b60f8161c191681555b50505050600190811b01905550565b81835281816020850137505f828201602090810191909152601f909101601f19169091010190565b604081525f611b25604083018587611aea565b9050826020830152949350505050565b67ffffffffffffffff831115611b4d57611b4d6119d0565b611b6183611b5b8354611958565b836119e4565b5f601f841160018114611b92575f8515611b7b5750838201355b5f19600387901b1c1916600186901b178355611a28565b5f83815260208120601f198716915b82811015611bc15786850135825560209485019460019092019101611ba1565b5086821015611bdd575f1960f88860031b161c19848701351681555b505060018560011b0183555050505050565b602081525f611c02602083018486611aea565b949350505050565b5f8235603e19833603018112611c1e575f5ffd5b9190910192915050565b8082018082111561046d5761046d6119a4565b5f5f8335601e19843603018112611c50575f5ffd5b83018035915067ffffffffffffffff821115611c6a575f5ffd5b602001915036819003821315611737575f5ffdfeb65a831710346acfae65a808a37f27ab439206a966e9a4ab4035af91c51c8dd1a2646970667358221220460dab90ee926eb41106394a277df6ff272763ba7ad31fa586d546d385bcac2064736f6c634300081c0033",
    "linkReferences": {}
  },
  "methodIdentifiers": {
    "AGENCY_ROLE()": "4d0adefd",
    "DEFAULT_ADMIN_ROLE()": "a217fddf",
    "agencies(address)": "0eaedc60",
    "approveProposal(uint256)": "98951b56",
    "completeProject(uint256)": "2245f152",
    "createProject(string,string,uint256)": "23c55448",
    "getRoleAdmin(bytes32)": "248a9ca3",
    "grantRole(bytes32,address)": "2f2ff15d",
    "hasRole(bytes32,address)": "91d14854",
    "nextProjectId()": "e935b7b1",
    "nextProposalId()": "2ab09d14",
    "projects(uint256)": "107046bd",
    "proposalPhases(uint256,uint256)": "dbcf8e2c",
    "proposals(uint256)": "013cf08b",
    "registerAgency(address,string)": "59738b9e",
    "renounceRole(bytes32,address)": "36568abe",
    "revokeRole(bytes32,address)": "d547741f",
    "submitProof(uint256,string)": "2af00510",
    "submitProposal(uint256,string,(string,uint256)[])": "920228b4",
    "supportsInterface(bytes4)": "01ffc9a7",
    "vault()": "fbfa77cf",
    "verifyAndReleasePhase(uint256)": "13778ae4"
  },
  "id": 35
}